:100000000C9434000C9451000C9451000C94510049
:100010000C9451000C9451000C9451000C9451001C
:100020000C9451000C9451000C9451000C9451000C
:100030000C9451000C9451000C9451000C945100FC
:100040000C9451000C9451000C9451000C945100EC
:100050000C9451000C9451000C9451000C945100DC
:100060000C9451000C94510011241FBECFEFD8E026
:10007000DEBFCDBF11E0A0E0B1E0EAE5FDE202C0E5
:1000800005900D92A839B107D9F721E0A8E9B1E0B0
:1000900001C01D92A939B207E1F70E940A140C941D
:1000A000AB160C94000081E08093980108950F93A3
:1000B0001F9300E010E0980106171707280739077B
:1000C00019F41F910F91089543E04A95F1F700004C
:1000D0000F5F1F4F2F4F3F4FEFCF9BB1937C9BB9CB
:1000E00050E040E0682F70E09BB19B01042E02C0FD
:1000F000359527950A94E2F721703327042E02C024
:10010000220F331F0A94E2F784E0220F331F8A95EF
:10011000E1F7292B2BB94F5F5F4F4430510521F791
:1001200085EF90E00197F1F700C000002B9893E075
:100130009A95F1F700002B9A83E08A95F1F7000079
:100140002B9885EF90E00197F1F700C0000008952B
:100150009BB1937C9BB950E040E0682F70E0A3E036
:10016000B0E09BB19B01042E02C0359527950A94FF
:10017000E2F721703327FD01E41BF50B02C0220FCB
:10018000331FEA95E2F7220F331F220F331F292B6B
:100190002BB94F5F5F4F4430510519F785EF90E061
:1001A0000197F1F700C000002B9893E09A95F1F7C2
:1001B00000002B9A83E08A95F1F700002B9885EFD9
:1001C00090E00197F1F700C00000089584B18861C4
:1001D00084B98AB18C638AB92FEF8FE791E02150FF
:1001E00080409040E1F700C000C085B1877E85B9AE
:1001F00083E00E946D0083E39BE20197F1F783E0C7
:100200000E946D0083E39BE20197F1F783E00E9477
:100210006D0080E791E00197F1F700C082E00E9455
:100220006D0082E00E946D0088E00E946D0080E019
:100230000E946D008CE00E946D0080E00E946D00C5
:1002400081E00E946D0083E393E10197F1F780E084
:100250000E946D0086E00E946D009FEF2FEF82E00C
:10026000915020408040E1F700C000C00895CF9336
:10027000C62F2C9895B1811180E1982B95B98C2FC0
:1002800082958F700E94A8008C2F0E94A8008FEF8B
:100290009FE50197F1F700C00000CF9108950F93FB
:1002A0001F93CF93DF938C01EC018881811105C0EE
:1002B000DF91CF911F910F910895CE01801B910B7B
:1002C000089721F460EC80E00E943701699181E099
:1002D0000E943701EACF80E0089594EA9093BC0031
:1002E0009091BC0097FFFCCF9091B900987F983017
:1002F00011F081E00895880F81608093BB0084E84D
:100300008093BC008091BC0087FFFCCF8091B90036
:10031000887F883171F7FB0180818093BB0084E87E
:100320008093BC008091BC0087FFFCCF8091B90016
:10033000887F8832F1F684E98093BC0080E00895DC
:100340004F925F926F927F928F929F92AF92BF92E5
:10035000CF92DF92EF92FF92CF93DF93EA010E9458
:1003600087154B015C01688D798D90E080E00E94DB
:1003700087152B013C0120E030E040E057E3C50148
:10038000B4010E943E166B017C0120E030E040E0A9
:1003900059E3C301B2010E943E169B01AC01C701A3
:1003A000B6010E946D146B017C0120E030E040E852
:1003B00058E3C501B4010E943E164B015C0120E0E8
:1003C00030E040E85AE3C301B2010E943E169B01AF
:1003D000AC01C501B4010E946D144B015C016A8D32
:1003E0007B8D072E000C880B990B0E9489159B01B1
:1003F000AC01C501B4010E943E164B015C016C8D3D
:10040000062E000C770B880B990B0E94891520E0B3
:1004100030E040E851E40E943E162B013C01A70168
:100420009601C701B6010E943E169B01AC01C301B3
:10043000B2010E943E169B01AC01C501B4010E94AD
:100440006E146DA77EA78FA798AB20E030E040EA3E
:1004500055E40E94DF14DF91CF91FF90EF90DF9081
:10046000CF90BF90AF909F908F907F906F905F9054
:100470004F9008954F925F926F927F928F929F92CA
:10048000AF92BF92CF92DF92EF92FF92CF93DF9322
:1004900000D000D000D0CDB7DEB74B015C015E8349
:1004A0004D8320E030E040E05FE3ED81FE8165A513
:1004B00076A587A590A90E943E1620E030E04AE785
:1004C00057E40E946D146B017C01ED81FE8161A1F6
:1004D000062E000C770B880B990B0E948915A7013B
:1004E00096010E943E16A70196010E943E1620E04A
:1004F00030E040E858E30E943E162B013C01ED81BC
:10050000FE81678D70A1072E000C880B990B0E944D
:100510008915A70196010E943E169B01AC01C301FB
:10052000B2010E946E1420E030E040E056E30E94E9
:100530003E1620E030E040E058E30E943E1620E006
:1005400030E040E85FE30E946E142B013C01ED8136
:10055000FE81658D768D90E080E00E948715A30175
:1005600092010E943E1669837A838B839C830E944A
:100570005115672B09F419C1ED81FE8166A1062E84
:10058000000C770B880B990B0E94891520E030E056
:1005900040E057E30E943E162B013C01A701960163
:1005A000C701B6010E943E169B01AC01C301B20116
:1005B0000E943E162B013C01ED81FE8164A175A1D4
:1005C000072E000C880B990B0E948915A701960134
:1005D0000E943E169B01AC010E946E14A301920181
:1005E0000E946E1420E030E040E85EE30E943E1678
:1005F0006B017C01C501B4010E9487159B01AC0110
:1006000060E070E080E899E40E946D144B015C01A9
:10061000ED81FE8162A173A1072E000C880B990B5E
:100620000E94891520E030E040E857E40E943E1621
:10063000A70196010E946E1420E030E040E859E3E3
:100640000E943E169B01AC01C501B4010E946D14CD
:1006500020E030E543EC55E40E943E1629813A81C2
:100660004B815C810E94DF146B017C0120E030E053
:1006700040E85BE30E943E162B013C01ED81FE81C8
:1006800062A573A5072E000C880B990B0E94891593
:10069000A70196010E943E16A70196010E943E16F0
:1006A00020E030E040E050E30E943E164B015C0148
:1006B000ED81FE8160A571A5072E000C880B990BBA
:1006C0000E94891520E030E040E058E30E943E1689
:1006D000A70196010E943E169B01AC01C501B40121
:1006E0000E946E144B015C01ED81FE8164A570E0F7
:1006F00090E080E00E94891520E030E040E057E380
:100700000E943E1669837A838B839C83A3019201A6
:10071000C301B2010E943E16A30192010E943E163F
:100720009B01AC0169817A818B819C810E943E167C
:100730009B01AC01C501B4010E946E144B015C0128
:10074000ED81FE8167A1062E000C770B880B990BBB
:100750000E94891520E030E040E053E40E943E16FC
:100760009B01AC01C501B4010E946E1420E030E091
:1007700040E85DE30E943E16A70196010E946E14B8
:1007800026960FB6F894DEBF0FBECDBFDF91CF9196
:10079000FF90EF90DF90CF90BF90AF909F908F90A1
:1007A0007F906F905F904F90089560E070E0CB0174
:1007B000E7CF4F925F926F927F928F929F92AF920C
:1007C000BF92CF92DF92EF92FF92CF93DF9300D050
:1007D00000D000D0CDB7DEB75C017E836D8320E012
:1007E00030E040EA55E4FB0165A576A587A590A910
:1007F0000E94DF146B017C01ED81FE816089062E71
:10080000000C770B880B990B0E94891520E030E0D3
:1008100040E858E30E943E16A70196010E943E164A
:1008200020E030E040E85FE30E946E142B013C01C1
:10083000ED81FE816189062E000C770B880B990BE8
:100840000E94891520E030E040E855E30E943E1602
:10085000A70196010E943E16A70196010E943E162E
:100860009B01AC01C301B2010E946E142B013C013B
:10087000ED81FE816585768590E080E00E94871598
:1008800020E030E040E856E30E943E169B01AC01B8
:10089000C301B2010E943E1669837A838B839C83D5
:1008A000B50190E080E00E9487154B015C01ED816D
:1008B000FE816785062E000C770B880B990B0E9432
:1008C000891520E030E040E05FE30E943E16A7017A
:1008D00096010E943E162B013C01ED81FE8163854D
:1008E000748590E080E00E94871520E030E040E8C9
:1008F00051E40E943E169B01AC01C301B2010E946B
:100900006E149B01AC01C501B4010E946D149B01E2
:10091000AC0169817A818B819C810E943E164B01DA
:100920005C01ED81FE816389062E000C770B880B3C
:10093000990B0E94891520E030E040E055E30E94C9
:100940003E16A70196010E943E166B017C01ED81C7
:10095000FE81628970E090E080E00E94871520E0CF
:1009600030E040E858E30E943E169B01AC01C7010D
:10097000B6010E946E14A50194010E943E16A501C5
:1009800094010E943E16A50194010E946E146B0111
:100990007C0120E030E048EC52E40E943916181641
:1009A0001CF120E030E0A901C701B6010E94DA1471
:1009B00087FF03C0C12CD12C7601C701B601269652
:1009C0000FB6F894DEBF0FBECDBFDF91CF91FF9081
:1009D000EF90DF90CF90BF90AF909F908F907F90DF
:1009E0006F905F904F900895C12CD12C88ECE82E29
:1009F00082E4F82EE2CF8F929F92AF92BF92CF9275
:100A0000DF92EF92FF92CF93DF935C01EB016D8950
:100A10007E89072E000C880B990B0E94891520E017
:100A200030E040E058E30E943E162FE632E143E01A
:100A30005AE30E943E1625E732E04AE15BE30E945A
:100A40006E146B017C01B50181E9A81681E0B8063E
:100A500010F060E971E090E080E00E9487159B0152
:100A6000AC01C701B6010E943E1620E030E040E82C
:100A70005FE30E946E146B017C016C89062E000CF2
:100A8000770B880B990B0E94891520E030E040E835
:100A90005DE30E943E1620E030E044E452E40E9410
:100AA0006E149B01AC01C701B6010E943E166B019A
:100AB0007C016F89062E000C770B880B990B0E9426
:100AC000891520E030E040E85AE30E943E164B01D1
:100AD0005C016A85062E000C770B880B990B0E942F
:100AE00089159B01AC01C501B4010E943E169B0112
:100AF000AC01C701B6010E946E146B017C0169A9AB
:100B000070E090E080E00E94871520E030E040E84F
:100B100050E40E946E149B01AC0160E070E080E83C
:100B200090E40E94DF149B01AC01C701B6010E9452
:100B30003E166B017C016AA9062E000C770B880B10
:100B4000990B0E9489152FE632E143E05BE30E9496
:100B50003E1620E030E040E85FE30E946E149B0107
:100B6000AC0160E070E080E89FE30E94DF149B012D
:100B7000AC01C701B6010E943E1620E030E048EC0F
:100B800051E40E946D142AE939E949E550E40E94D4
:100B90003E160E945815862FDF91CF91FF90EF905F
:100BA000DF90CF90BF90AF909F908F900895FC0101
:100BB000892B81F084A995A9892B61F086A997A931
:100BC000892B41F081E020AD31AD232B09F080E08D
:100BD000819508958FEF0895EF92FF920F931F93E1
:100BE000CF93DF931F92CDB7DEB77C010E94D7056C
:100BF000811118C0D70111960D911C911297D496AE
:100C0000ED91FC9121E030E040E050E0BE016F5FEB
:100C10007F4F83EF0995F70182AF81110BC0998156
:100C2000907191870F90DF91CF911F910F91FF905D
:100C3000EF9008958EEFF6CFFF920F931F93CF930F
:100C4000DF938C01F62EEA01CA010E94D7058111BB
:100C50000EC0F8019081F91620F4F0829BAD9160EE
:100C60009BAFDF91CF911F910F91FF9008958FEF70
:100C7000F8CF4F925F926F927F928F929F92AF9236
:100C8000BF92CF92DF92EF92FF921F93CF93DF93A9
:100C9000CDB7DEB7C058D1090FB6F894DEBF0FBE8E
:100CA000CDBF162F942EA62EB12C20E4E0E0F1E06B
:100CB000DE01AF5BBF4F01900D922A95E1F720E472
:100CC000E0E4F1E0DE01119601900D922A95E1F742
:100CD000BC0190E080E00E94871520E030E040E019
:100CE00054E40E946D146B017C01AA0CBB1CAA0C7D
:100CF000BB1CE1E4F0E0EC0FFD1FEA0DFB1D20E062
:100D000030E048EC52E460817181828193810E94DD
:100D1000DF1420E030E040E85FE30E946E142B0116
:100D20003C01692D990C770B880B990B0E94891552
:100D300020E030E040EA50E40E943E1620E030E837
:100D400047EA54E40E946E149B01AC01C301B20156
:100D50000E943E169B01AC01C701B6010E94DF1440
:100D600020E030E040E85FE30E946E146B017C01FC
:100D7000E1E0F0E0EC0FFD1FEA0DFB1D20E030E0AC
:100D800048EC52E460817181828193810E94DF147A
:100D900020E030E040E85FE30E946E142DEB37E383
:100DA00046E054E30E943E164B015C0161E070E0B6
:100DB00002C0660F771F1A95E2F790E080E00E946C
:100DC00087159B01AC01C501B4010E943E169B0131
:100DD000AC01C701B6010E943E169B01AC0160E068
:100DE00070E080E89FE30E94DF14C058DF4F0FB629
:100DF000F894DEBF0FBECDBFDF91CF911F91FF9062
:100E0000EF90DF90CF90BF90AF909F908F907F90AA
:100E10006F905F904F900895EF92FF920F931F9302
:100E2000CF93DF931F92CDB7DEB787FD0FC080E170
:100E3000DB0119969C9198130BC080E00F90DF9115
:100E4000CF911F910F91FF90EF90089580E0F0CF28
:100E50007B01FB0181870181128104A8F5A9E02DA6
:100E600021E030E040E050E0BE016F5F7F4F83EF54
:100E70000995D701DA968C93DA9781111CC01996DF
:100E80008C911997807199819F7E892B8983119606
:100E90000D911C911297D696ED91FC9121E030E0D6
:100EA00040E050E0BE016F5F7F4F83E70995F70197
:100EB00082AF882311F28EEFC1CF3F924F925F92A3
:100EC0006F927F928F929F92AF92BF92CF92DF925A
:100ED000EF92FF920F931F93CF93DF93CDB7DEB7BF
:100EE00064970FB6F894DEBF0FBECDBF5C016B01F7
:100EF00029013A0178018E010F5F1F4F84E1D8016B
:100F00001D928A95E9F7C7010E94D70581115DC03E
:100F1000A114B10409F459C0C114D10409F455C095
:100F2000B301A20141505109610971094601840CC4
:100F3000951C4A3051056105710510F18CEF46C0D2
:100F4000F5013080D70117962D913C91232BD1F5D7
:100F5000C7010E94D705811104C0B701832D0E94EB
:100F60000C07F50190819F77D8019C93D6019D9144
:100F70006D01F80191830E5F1F4FFFEFAF1ABF0A9B
:100F8000C814D904E9F6811121C0D70111960D9139
:100F90001C911297440C551C661C771CA3019201EE
:100FA0002150310941095109D696ED91FC91BE01BC
:100FB0006E5F7F4F89810995F70182AF882331F0F9
:100FC0008EEF04C0F8013082D1CF8FEF64960FB658
:100FD000F894DEBF0FBECDBFDF91CF911F910F916F
:100FE000FF90EF90DF90CF90BF90AF909F908F9049
:100FF0007F906F905F904F903F9008958F929F9257
:10100000AF92BF92CF92DF92EF92FF920F931F9316
:10101000CF93DF93D82F6B0149015A017801C801A2
:101020000E94D705C82F81112FC0C114D10461F1CE
:10103000D80117968D919C91892B41F4B8018D2F81
:101040000E940C07C82F811101C0D068F7010181EF
:10105000128104A8F5A9E02DA5019401B6018D2FF8
:101060000995D701DA968C938111CEEF8C2FDF9101
:10107000CF911F910F91FF90EF90DF90CF90BF9095
:10108000AF909F908F900895CFEFF0CFEF92FF92A7
:101090000F931F93CF93DF9300D0CDB7DEB77C01C2
:1010A00080EE8A8386EB8983C7010E94D705182FBB
:1010B000811115C0D70117968D919C91892BC9F08C
:1010C000870121E030E040E050E0BE016F5F7F4FDC
:1010D000CE0102960E945D07182F882389F0812F88
:1010E0000F900F90DF91CF911F910F91FF90EF9094
:1010F0000895C7010E94EC05182F8111F0CFE0CFB1
:10110000F7014181528100ACF1ADE02D60E177E261
:1011100080E090E00995D70117968D919C91892BDD
:10112000F1F6C7010E94EC05182FD9CFEF92FF927C
:101130000F931F93CF93DF93CDB7DEB7AA970FB668
:10114000F894DEBF0FBECDBF7C010E944608870128
:1011500021E030E040E050E0B70180ED0E94FE0762
:101160008111A3C0F7018081813609F0ABC01982DB
:1011700021E030E040E050E0BE016F5F7F4F80EF44
:101180000E94FE07811191C0898190E0B0E0A0E04B
:10119000F70183839483A583B68327E130E040E0A1
:1011A00050E0BE016F5F7F4F8AE80E94FE07811109
:1011B0007CC02EE030E040E050E0BE01685E7F4F32
:1011C00081EE0E94FE07811170C025E030E040E012
:1011D00050E0BE016A5D7F4F0E94FE07811165C02D
:1011E00028A139A1F701318F208F29813A81338FCE
:1011F000228F9B81948F2D813E81368F258F2F8169
:10120000388530A3278F998591A32B853C8533A3FF
:1012100022A32D853E8535A324A3988996A39F8577
:1012200097A32B893C8931A720A72D893E8933A715
:1012300022A79F8994A7998D2A8DF0E12F9F900175
:101240001124492F4F70242BF70134872387288DD1
:10125000F0E12F9F9001112492959F70292BF701A7
:10126000368725879B8D97879C8D908B9D8D918B45
:101270009E8D928B9F8D938B9CA1948B2AA13BA1D9
:10128000368B258B9DA1978B28A5207330E094E0A9
:10129000359527959A95E1F721AB9EA192AB9AA53A
:1012A000959595959595959593ABAA960FB6F894C7
:1012B000DEBF0FBECDBFDF91CF911F910F91FF9089
:1012C000EF9008958DEFF1CFEF92FF920F931F9360
:1012D000CF93DF9300D000D01F92CDB7DEB77C0153
:1012E0008B0125E030E040E050E0BE016F5F7F4FB2
:1012F00081E70E94FE07E114F10489F181111FC00A
:101300009A819770F70190839D81292F30E0359560
:10131000279535952795277023832C81322F329579
:1013200036953770318330E035952795359527957B
:1013300027702283298127FF0EC098E094830F90A5
:101340000F900F900F900F90DF91CF911F910F9101
:10135000FF90EF900895929596959770EFCF8FEF4D
:10136000EECFDF92EF92FF920F931F93CF93DF9315
:1013700000D0CDB7DEB7D82E7B0184E78983870103
:1013800021E030E040E050E0BE016E5F7F4F84E737
:101390000E94FE07182F811122C08A81982F937016
:1013A00049F18C7F8A83870121E030E040E050E002
:1013B000BE016E5F7F4FCE0101960E945D07182F20
:1013C000D70111964D915C911297D896ED91FC91B1
:1013D00060E177E280E090E00995112381F2812FAE
:1013E0000F900F90DF91CF911F910F91FF90EF9091
:1013F000DF900895DD2099F38C7F9D2D9370892BCC
:101400008A83870121E030E040E050E0BE016E5F5A
:101410007F4FCE0101960E945D07182FE0CFEF921B
:10142000FF920F931F93CF93DF931F92CDB7DEB739
:101430000097C1F08B017C0121E030E040E050E0FA
:10144000BE016F5F7F4F84E70E94FE079981937012
:10145000F70190830F90DF91CF911F910F91FF9033
:10146000EF9008958FEFF6CFAF92BF92CF92DF92B9
:10147000EF92FF920F931F93CF93DF93CDB7DEB719
:101480002B970FB6F894DEBF0FBECDBF7C016B016A
:1014900085E0E0E8F1E0DE01169601900D928A9574
:1014A000E1F7CE0101965C0185E0F50111928A9584
:1014B000E9F7CE010B960E940F0A811197C0B60181
:1014C0000E94B109E114F104D9F48FEF9B859923AF
:1014D00031F0811104C0B601892F0E94B1092B9609
:1014E0000FB6F894DEBF0FBECDBFDF91CF911F9135
:1014F0000F91FF90EF90DF90CF90BF90AF90089545
:101500008111E4CF860125E030E040E050E0B501F4
:101510008E810E94FE07F60113AE8111D7CFA6017E
:1015200067E0C70103960E941C068111CFCFA60178
:1015300065E0C70101960E941C068111C7CFA60174
:1015400065E0C70102960E941C068111BFCFA6016B
:1015500065E0C7010E941C068111B8CFA60168E0B2
:10156000C70104960E941C068111B0CFF701838148
:10157000F4E08F9FC00111248C719D81937E892B93
:101580009C819F71F7012181F0E22F9F900111242E
:10159000922B937EF7012281F4E02F9F900111247A
:1015A0002C71922B9C839A81987FF7012081277060
:1015B000922B9A83248190E0283011F491E020E06E
:1015C0008F71F0E22F9F90011124822B8D838981EE
:1015D00090FB87F98983860125E030E040E050E008
:1015E000B501CE0106960E945D0770CFEF2809F085
:1015F0006DCF6BCFCF92DF92FF920F931F93CF935C
:10160000DF9300D000D000D0CDB7DEB796E0E5E89C
:10161000F1E0DE01119601900D929A95E1F76115C6
:10162000710589F460E070E0CB0126960FB6F8945E
:10163000DEBF0FBECDBFDF91CF911F910F91FF9005
:10164000DF90CF9008956A018B01F82E65E0C80104
:1016500001960E941C068111E5CFA60165E0C80134
:1016600002960E941C068111DDCFA60165E0C8012B
:101670000E941C068111D6CFD8011196EC911197CA
:1016800021E030E02C0F3D1F2E0F311DF90180812C
:101690001296EC91A1E0B0E0AC0FBD1FAE0FB11DF2
:1016A000FD01208130E050E040E0280F311D411D58
:1016B000511DD801EC9181E090E08C0F9D1F8E0FA1
:1016C000911DFC018081280F311D411D511DABEA88
:1016D000B7E00E946214A2E0FA1205C06B537F4E7D
:1016E0008F4F9F4FA2CF63557B4E8F4F9F4F9DCF04
:1016F0002F923F924F925F926F927F928F929F9222
:10170000AF92BF92CF92DF92EF92FF920F931F930F
:10171000CF93DF93CDB7DEB7CC5AD1090FB6F8948B
:10172000DEBF0FBECDBFF82E4B01CD55DF4F598325
:101730004883C35AD0406901FE01319682E4DF013B
:101740001D928A95E9F7CC56DF4FF983E883C45997
:10175000D040CE014796CA56DF4F99838883C65939
:10176000D0404696C856DF4F99838883C859D040E9
:10177000C9010E94D7058823E1F01FEF812FC455CE
:10178000DF4F0FB6F894DEBF0FBECDBFDF91CF9114
:101790001F910F91FF90EF90DF90CF90BF90AF908F
:1017A0009F908F907F906F905F904F903F902F9081
:1017B00008958114910409F3B1E0FB12D5C15E01D3
:1017C000E3E4AE0EB11C81E1D5011D928A95E9F7E3
:1017D000A5E06A2EF4013396C955DF4FF983E883FB
:1017E000C75AD04084010C5F1F4FC755DF4F198384
:1017F0000883C95AD04094012B5F3F4FC555DF4F36
:1018000039832883CB5AD040860121E130E040E083
:1018100050E0B5018DE10E94FE07182FD5018C9193
:10182000282F2078F40120838F70818311969C915A
:10183000119792831296FC911297C056DF4FF8834E
:10184000C05AD04013962C90139714960C9114976D
:10185000CF55DF4F0883C15AD04015967C9015971D
:101860001696EC90169717965C90179718963C90E2
:10187000189719964C9019971D963C911D97CB552A
:10188000DF4F3883C55AD0401E964C911E97C256E2
:10189000DF4F4883CE59D0401F965C911F97CA55A1
:1018A000DF4F5883C65AD04050969C91C656DF4FA2
:1018B0009883CA59D040D60113964D915D916D9190
:1018C0007C911697413051056105710509F008C1F9
:1018D0009073922BF4019083F401908197FF2BC1B8
:1018E000111136C1860121E030E040E050E0C955D9
:1018F000DF4F68817981C75AD040865A0E94FE071F
:10190000182F811125C1D40111968C91860121E0F7
:1019100030E040E050E0C755DF4F68817981C95A17
:10192000D040805B0E94FE07182F811111C1F40185
:101930008181860121E030E040E050E0C555DF4F75
:1019400068817981CB5AD0408C590E94FE07182FAC
:101950008111FEC06E2D70E090E080E034E0660FF3
:10196000771F881F991F3A95D1F752944FE0542260
:101970006529072D10E030E020E05CE0000F111F2A
:10198000221F331F5A95D1F7602B712B822B932B7B
:10199000A6010E94A001D40116966D937D938D93AC
:1019A0009C931997622D70E090E080E0E4E0660F70
:1019B000771F881F991FEA95D1F7CF55DF4F2881F0
:1019C000C15AD04022952F70622BC056DF4FB8818C
:1019D000C05AD0400B2F10E030E020E0FCE0000FB8
:1019E000111F221F331FFA95D1F7602B712B822B09
:1019F000932BA6010E943A02F401628773878487C1
:101A00009587B601932D842D0E94D903D4011E968B
:101A10006D937D938D939C935197F601838194816F
:101A2000A581B6810197A105B10509F063C0CA552A
:101A3000DF4F0881C65AD040F4E00F9F9001112477
:101A4000C656DF4F8881CA59D040829586958695C3
:101A50008370282B50E040E0325041095109A3E047
:101A6000B0E00E9462142B013C01C656DF4F888112
:101A7000CA59D0408F7040E050E064E070E08A01C5
:101A80009B0104C036952795179507958A95D2F73F
:101A9000C901B8010E94871520E034E244E759E407
:101AA0000E943E165B016C01C301B201705F8F4F53
:101AB0009F4F0E9489159B01AC01C601B5010E9490
:101AC000DF14D40152966D937D938D939C9355971B
:101AD000D4018C9110E087FD3CC2F12C12E039C298
:101AE000C256DF4F9881CE59D0409073922BD401CB
:101AF0009C93F2CEC256DF4F6881CE59D0406F70B2
:101B0000CB55DF4FE881C55AD040B4E0EB9F900140
:101B10001124C256DF4F9881CE59D04092959695A8
:101B200096959370D601D3964C91F901E92BCF018C
:101B30000E943906C6CF11110BC0F60141815281B6
:101B400000ACF1ADE02D60E177E280E090E0099536
:101B50006A94662029F0112309F456CEF12CF9C1BC
:101B6000112309F4B5CFFACF8EEF8F0DF12C11E0D0
:101B7000823008F0EEC17E01B3E4EB0EF11C83E38A
:101B8000F70111928A95E9F75E01F6E7AF0EB11CF5
:101B90008EE1D5011D928A95E9F7860123E330E0B5
:101BA00040E050E0B7018DE10E94FE07182F81113F
:101BB0004CC186012EE130E040E050E0B50180E507
:101BC0000E94FE07182FFE01EC56FF4FC256DF4F52
:101BD000F983E883CE59D04097012D5C3F4FCF5514
:101BE000DF4F39832883C15AD04081112EC1D701DC
:101BF000EC91C256DF4FA881B981CE59D040AD904B
:101C0000BD90C256DF4FB983A883CE59D040FE2F76
:101C1000F078D501FC93EF701196EC93D7011196F3
:101C20002C91D50112962C93D70112964C901297B5
:101C3000512C712C612C3CE0440C551C661C771C0B
:101C40003A95D1F713964C91139750E070E060E00D
:101C500004E0440F551F661F771F0A95D1F7442AE9
:101C6000552A662A772A14962C91149722952F705C
:101C7000422A15964C91159750E070E060E08CE098
:101C8000440F551F661F771F8A95D1F716962C9122
:101C9000822F90E0B0E0A0E024E0880F991FAA1FF7
:101CA000BB1F2A95D1F7482B592B6A2B7B2BD701C9
:101CB00017962C91179722952F70CB01BA01622BA2
:101CC00018963C91189719962C911997A901C65608
:101CD000DF4F59834883CA59D0401D960C911D97F8
:101CE000C056DF4F0883C05AD0401E962C901E97D6
:101CF0001F963C901F9750960C91D60113962D91EC
:101D00003D914D915C91169721303105410551056A
:101D100009F0ADC0202F20732F2BD5012C9326E77F
:101D200030E02C0F3D1F2E0F311DF901208114963C
:101D30002C931497228513962C9313972489159628
:101D40002C93A6010E94A001F5016683778380870A
:101D50009187A601C301B2010E943A02D5011A96E9
:101D60006D937D938D939C931D97B601C656DF4F5F
:101D700088819981CA59D0400E94D903F5016687AC
:101D80007787808B918BF60183819481A581B681C1
:101D90000197A105B10509F06CC0F4E03F9E9001E8
:101DA0001124802F8295869586958370282B50E08C
:101DB00040E0325041095109A3E0B0E00E946214B2
:101DC0002B013C010F7060E070E084E090E004C003
:101DD00096958795779567950A95D2F70E9487150E
:101DE00020E034E244E759E40E943E16C656DF4F35
:101DF000688379838A839B83CA59D040C301B20127
:101E0000705F8F4F9F4F0E9489159B01AC01C65692
:101E1000DF4F688179818A819B81CA59D0400E94B5
:101E2000DF14D50152966D937D938D939C935597B6
:101E3000F1E1EF0EF11CCF55DF4F28813981C15AF6
:101E4000D040E216F30609F0D2CECE018C569F4F59
:101E5000FC0123E0F12C111164C0A191B1913C91DE
:101E600037FDF3942150C9F7FC0120E050C0222D2A
:101E700052CF622D6F70C056DF4F0881C05AD040DC
:101E8000B4E00B9FC001112422942694269423E0F1
:101E9000222243A982290E943906F501628B738BA5
:101EA000848B958BC5CF02E020813181D3014D9188
:101EB0005D913D01DA016C91D9017C9177FF1EC0E3
:101EC00067FF1EC0DA0112966C91D90112967C91BF
:101ED000671B770B5B01B2E0AB0EB11CA2E0AA1648
:101EE000B10418F0633071055CF051834083A301A5
:101EF00042505109DA012D933C9302C067FDF5CFA2
:101F0000023089F621E0F601B2E0EB1651F0EE2442
:101F1000E394E20E6F0102E0C00ED11C36010E2DDB
:101F2000C3CFAC014A5F5F4F111110C0DC01ED91CE
:101F3000FD91CD0126E1D40101900D922A95E1F7A2
:101F4000B6E18B0E911C4817590781F7FF2009F461
:101F5000C5CDCD55DF4FE881F981C35AD0403097C8
:101F600009F40BCCF0820ACC2F923F924F925F92F1
:101F70006F927F928F929F92AF92BF92CF92DF9299
:101F8000EF92FF920F931F93CF93DF93CDB7DEB7FE
:101F9000E8970FB6F894DEBF0FBECDBF582E4B01A9
:101FA0001A0180E789A781E78AA7672B09F4A2C0F5
:101FB000BA0180E00E94B109182F811144C18EE658
:101FC0008BA78AE09E01215E3F4F3EA72DA7D90136
:101FD000E82F1D92EA95E9F72A50310938AB2FA76F
:101FE000D901E82F1D92EA95E9F73E01FBE06F0E5B
:101FF000711CD301E82F1D92EA95E9F7FE01319695
:10200000DF011D928A95E9F7B2E05B1609F4C2C0C0
:1020100023E0521609F466C031E011E0531213C1F7
:102020008AE58F8FB101D40111968D919C910E9408
:10203000FB048D8B84E68B87F4012381348180E05F
:10204000203CFFE03F0738F08FEF0DC03695279515
:10205000369527958F5F20343105C0F78295880F1C
:10206000880F807C820F8983B12CC52CD12CF12C58
:10207000E12C8101A7019601BE016B5E7F4FCE016D
:102080004F960E945D07182F8111DDC08101A701C5
:102090009601BE016F5F7F4FC3010E945D07182F3D
:1020A0008111D1C0810122E030E040E050E0BE016A
:1020B0006F5F7F4F80E70E94FE07182F8111C3C01A
:1020C000D4018C91813009F004C1F10183819481A4
:1020D000A581B6810197A105B10509F41DC191E063
:1020E00080E0F9C0D4011796CD90DC901897C11408
:1020F000D10411F41FEFA7C01596ED90FC90169730
:10210000E114F104B9F319965C908F01FE017F96FA
:10211000FAABE9AB9E012B5E3F4F59017CAA6BAA3B
:10212000412C451002C0B52CA0CF8AE5840DA9A989
:10213000BAA98D93BAABA9ABB101F7018191919185
:102140007F010E94FB04D5018D935D0184E6840D1F
:10215000EBA9FCA98193FCABEBABD6012D913D9192
:102160006D0180E0203CBFE03B0738F08FEF0DC0F1
:1021700036952795369527958F5F20343105C0F722
:102180008295880F880F807C820FF80181938F01E0
:102190004394C7CFD4011796CD90DC901897C11403
:1021A000D10409F4A7CF15968D919C9116970097AD
:1021B00009F4A0CF1A96ED90FC90E114F10409F413
:1021C00013E0D40119960C919E01215E3F4F3CAB68
:1021D0002BAB9AAB89ABCE0145969EAB8DAB530131
:1021E000F8AFEFAB512C501248C02FEFF3E8EF16C9
:1021F000F7E0FF06A8F49701A8EEB3E00E9453149D
:102200002DED31E040E050E00E94311480E02034B8
:10221000310508F058C08295880F880F807C280F00
:102220002CA7111110C0810121E030E040E050E006
:10223000BE01645D7F4FCE018B960E945D07182F13
:10224000882309F470CF812FE8960FB6F894DEBF8B
:102250000FBECDBFDF91CF911F910F91FF90EF90F7
:10226000DF90CF90BF90AF909F908F907F906F90B6
:102270005F904F903F902F9008958AE5850DABA910
:10228000BCA98D93BCABABABB101E9A9FAA9819113
:102290009191FAABE9AB0E94FB04ADA9BEA98D9365
:1022A000BEABADAB84E6850DF50181935F01D60130
:1022B0008C91B2E0CB0ED11CEFA9F8AD8193F8AFB1
:1022C000EFAB539490CF36952795369527958F5F32
:1022D0009ECF90E081E02981277F880F880F880FAB
:1022E000822B89838A81FB2DFF70BF2E807CB82AC8
:1022F00020E1929FC0011124B82ABA82810122E014
:1023000030E040E050E0BE016F5F7F4FCE01899624
:102310000E945D07182F97CF92E0E2CEAF92BF9256
:10232000CF92DF92EF92FF920F931F93CF93DF93A1
:10233000CDB7DEB72A970FB6F894DEBF0FBECDBF7C
:102340009E012F5F3F4F69012AE0D6011D922A9519
:10235000E9F7009709F467C0FC0127813085232B3A
:1023600009F461C025813681232B09F45CC05B012F
:102370007C018B012AE030E040E050E0B6018AE5C4
:102380000E94FE07882309F44CC02A960FB6F894E1
:10239000DEBF0FBECDBFDF91CF911F910F91FF9098
:1023A000EF90DF90CF90BF90AF900895282F30E04E
:1023B000A901440F551FD7011596ED91FC91E40F2B
:1023C000F51F2C0D3D1DD9012C9130E03183208368
:1023D0008F5FF7019185891748F385012AE030E086
:1023E00040E050E0B60184E60E94FE0790E08111D3
:1023F000CCCFF7012185921740F6292F30E0A901B3
:10240000440F551FD7011796ED91FC91E40FF51F6E
:102410002C0D3D1DD9012C9130E0318320839F5F2D
:10242000E8CF80E0D6CF8FEFB0CF6F927F928F92C0
:102430009F92AF92BF92CF92DF92EF92FF920F9353
:102440001F93CF93DF93CDB7DEB7C25DD1090FB62F
:10245000F894DEBF0FBECDBF5C01CE0101966C01CA
:1024600084E8D6011D928A95E9F7C5010E94D70537
:10247000182F811174C17E01B5E8EB0EF11C89E1C2
:10248000F7018287D501D4968D919C91D59795AB14
:1024900084ABD6968D919C91D79797AB86AB1796C8
:1024A0008D919C91189790878783D8968D919C9158
:1024B000D99791AF80AF11968D919C919283818332
:1024C000C7010E949608182F811149C181E0C353AA
:1024D000DF4F8883CD5CD04095E0C153DF4F9883B8
:1024E000CF5CD04092E0C253DF4F9883CE5CD040A7
:1024F000CF53DF4F8883C15CD04088EE93E0CC534C
:10250000DF4F99838883C45CD0408EE591E0CE5341
:10251000DF4F99838883C25CD040A701BE016F530F
:102520007F4F81E00E94B40F182F81112DC0B70199
:10253000CE0183539F4F0E94340A182F811124C06B
:10254000B70181E00E94B109182F81111DC0F70168
:102550004181528100ACF1ADE02D60E472E48FE086
:1025600090E009959701AE014E525F4FB60181E0B0
:102570000E94780B182F811107C08D8181508E3FEA
:1025800058F5898185FF28C080ED97E0CC53DF4F57
:1025900099838883C45CD040B12CA12C86E9882E15
:1025A000912C9EE5692E7724739406E18A2D1111F2
:1025B000D6C0E6E0AE16B10489F48F809884A98471
:1025C000BA8420E030E0A901C501B4010E94DA1408
:1025D00087FF4DC001E057C01BEFD6CF80FD40C044
:1025E000CE53DF4F79826882C25CD040A701BE0122
:1025F0006F537F4F81E00E94B40F182F81112CC0C0
:10260000B701CE0183539F4F0E94340A182F8111C6
:1026100023C0B70181E00E94B109182F81111CC0AD
:10262000D70111964D915C911297D896ED91FC913E
:1026300060E874E88EE190E009950A9DB0010B9D79
:10264000700D11246C0D7D1D9701AE014E525F4F30
:1026500081E00E94780B182FBFEFAB1ABB0AA6CF00
:10266000CE53DF4F99828882C25CD040BFCF01E059
:1026700020E030E040E752E4C501B4010E94391681
:1026800018160CF000E08B849C84AD84BE8420E09E
:1026900038EC4FEA57E4C501B4010E94DA1487FD13
:1026A0000AC020E038ED46ED57E4C501B4010E94B0
:1026B000391618160CF40F5F8F849888A988BA8889
:1026C00020E030E040EA51E4C501B4010E94DA1490
:1026D00087FD0AC020E030E040EA52E4C501B401C1
:1026E0000E94391618160CF40F5FF601808185FFE1
:1026F0000F5F7696EE16FF06C9F7CF57DF4F28819A
:1027000039814A815B81C158D04069966CAD7DADFD
:102710008EAD9FAD69970E946E1420E030E040EAD4
:1027200050E40E943E166B017C01AF966CAD7DAD0E
:102730008EAD9FADAF979B01AC010E946E149B01C3
:10274000AC01C701B6010E94DF140E945815663023
:1027500071058105910508F40F5F01111BEF812FB1
:10276000CE52DF4F0FB6F894DEBF0FBECDBFDF9164
:10277000CF911F910F91FF90EF90DF90CF90BF907E
:10278000AF909F908F907F906F9008951092C500AA
:1027900087E68093C400E1ECF0E086E0808388E186
:1027A000808308959091C00095FFFCCF8093C60070
:1027B00008958091C00087FFFCCF8091C6000895E6
:1027C000CF93DF93EC018991811103C0DF91CF9109
:1027D00008950E94D213F7CFEF92FF920F931F93A9
:1027E000CF93DF938C017B01EC01CE01801B910B19
:1027F0008E159F0544F081E0DF91CF911F910F91DD
:10280000FF90EF9008950E94D91389938111EDCF25
:1028100080E0F2CF2FEF8FEF92E021508040904088
:10282000E1F700C000C00E94E6008BE891E00E9442
:102830004F010E94C613259A2D9A2FEF8FEF9EE02D
:10284000215080409040E1F700C000002D982FEF0C
:102850008FEF9EE0215080409040E1F700C00000E3
:10286000EBCFA1E21A2EAA1BBB1BFD010DC0AA1FB4
:10287000BB1FEE1FFF1FA217B307E407F50720F0E9
:10288000A21BB30BE40BF50B661F771F881F991F64
:102890001A9469F760957095809590959B01AC01AD
:1028A000BD01CF010895A29FB001B39FC001A39FB6
:1028B000700D811D1124911DB29F700D811D112479
:1028C000911D08950E945314A59F900DB49F900DE3
:1028D000A49F800D911D112408955058BB27AA274D
:1028E0000E9485140C94FF150E94F11538F00E9487
:1028F000F81520F039F49F3F19F426F40C94EE15E6
:102900000EF4E095E7FB0C94E815E92F0E941016F1
:1029100058F3BA17620773078407950720F079F414
:10292000A6F50C9432160EF4E0950B2EBA2FA02DBE
:102930000B01B90190010C01CA01A0011124FF276C
:10294000591B99F0593F50F4503E68F11A16F04067
:10295000A22F232F342F4427585FF3CF4695379566
:102960002795A795F0405395C9F77EF41F16BA0B2B
:10297000620B730B840BBAF09150A1F0FF0FBB1FD9
:10298000661F771F881FC2F70EC0BA0F621F731F22
:10299000841F48F4879577956795B795F7959E3F7F
:1029A00008F0B0CF9395880F08F09927EE0F979510
:1029B000879508950E94C41508F481E008950E9447
:1029C000F3140C94FF150E94F81558F00E94F115AD
:1029D00040F029F45F3F29F00C94E81551110C9454
:1029E00033160C94EE150E94101668F39923B1F378
:1029F000552391F3951B550BBB27AA276217730725
:102A0000840738F09F5F5F4F220F331F441FAA1FB8
:102A1000A9F335D00E2E3AF0E0E832D09150504074
:102A2000E695001CCAF72BD0FE2F29D0660F771F22
:102A3000881FBB1F261737074807AB07B0E809F008
:102A4000BB0B802DBF01FF2793585F4F3AF09E3F8D
:102A5000510578F00C94E8150C9433165F3FE4F3BD
:102A6000983ED4F3869577956795B795F7959F5FD0
:102A7000C9F7880F911D9695879597F90895E1E01C
:102A8000660F771F881FBB1F621773078407BA077B
:102A900020F0621B730B840BBA0BEE1F88F7E095D6
:102AA00008950E9458156894B1110C943316089536
:102AB0000E94181688F09F5798F0B92F9927B751A0
:102AC000B0F0E1F0660F771F881F991F1AF0BA95D2
:102AD000C9F714C0B13091F00E943216B1E00895E8
:102AE0000C943216672F782F8827B85F39F0B93FDA
:102AF000CCF3869577956795B395D9F73EF4909585
:102B00008095709561957F4F8F4F9F4F0895E89402
:102B100009C097FB3EF490958095709561957F4F25
:102B20008F4F9F4F9923A9F0F92F96E9BB279395D3
:102B3000F695879577956795B795F111F8CFFAF4E3
:102B4000BB0F11F460FF1BC06F5F7F4F8F4F9F4F14
:102B500016C0882311F096E911C0772321F09EE872
:102B6000872F762F05C0662371F096E8862F70E0D8
:102B700060E02AF09A95660F771F881FDAF7880FB2
:102B80009695879597F90895990F0008550FAA0B08
:102B9000E0E8FEEF16161706E807F907C0F0121670
:102BA0001306E407F50798F0621B730B840B950B73
:102BB00039F40A2661F0232B242B252B21F40895C8
:102BC0000A2609F4A140A6958FEF811D811D089565
:102BD00097F99F6780E870E060E008959FEF80ECD0
:102BE000089500240A941616170618060906089573
:102BF00000240A9412161306140605060895092ED9
:102C00000394000C11F4882352F0BB0F40F4BF2B47
:102C100011F460FF04C06F5F7F4F8F4F9F4F089587
:102C200057FD9058440F551F59F05F3F71F047957D
:102C3000880F97FB991F61F09F3F79F08795089562
:102C4000121613061406551FF2CF4695F1DF08C081
:102C5000161617061806991FF1CF8695710561059E
:102C600008940895E894BB2766277727CB0197F946
:102C700008950E94C41508F48FEF08950E9451161C
:102C80000C94FF150E94F11538F00E94F81520F001
:102C9000952311F00C94E8150C94EE1511240C9466
:102CA00033160E94101670F3959FC1F3950F50E0F4
:102CB000551F629FF001729FBB27F00DB11D639FEE
:102CC000AA27F00DB11DAA1F649F6627B00DA11D94
:102CD000661F829F2227B00DA11D621F739FB00D3A
:102CE000A11D621F839FA00D611D221F749F3327AA
:102CF000A00D611D231F849F600D211D822F762F43
:102D00006A2F11249F5750409AF0F1F088234AF01F
:102D1000EE0FFF1FBB1F661F771F881F915050408B
:102D2000A9F79E3F510580F00C94E8150C943316DA
:102D30005F3FE4F3983ED4F3869577956795B79512
:102D4000F795E7959F5FC1F7FE2B880F911D96952C
:0A2D5000879597F90895F894FFCFD6
:102D5A000000000000000000000000000000000069
:102D6A0000000000000080BF00000000CDCC4CBF76
:102D7A000000000000000000CDCC4CBE000000BFE7
:102D8A0000000000000080BF0000000000000000FA
:102D9A000000000000000000000000000000000029
:102DAA00CDCCCC3D3333333F00000000CDCC4CBFFB
:102DBA00CDCCCCBD000000000000000000000000E7
:102DCA0000000000000000000000000000000000F9
:102DDA00717273747500010204081053746172747D
:082DEA00696E672E2E2E000019
:00000001FF
