:100000000C9434000C943E000C943E000C943E0082
:100010000C943E000C943E000C943E000C943E0068
:100020000C943E000C943E000C943E000C943E0058
:100030000C943E000C943E000C943E000C943E0048
:100040000C943E000C943E000C943E000C943E0038
:100050000C943E000C943E000C943E000C943E0028
:100060000C943E000C943E0011241FBECFEFD8E04C
:10007000DEBFCDBF0E94D1000C94E5000C940000BF
:100080001BB850E040E0682F70E09BB19B01042E4C
:1000900002C0359527950A94E2F721703327042E84
:1000A00002C0220F331F0A94E2F784E0220F331FAD
:1000B0008A95E1F7292B2BB94F5F5F4F44305105EB
:1000C00021F785EF90E00197F1F700C000002B9831
:1000D00093E09A95F1F700002B9A83E08A95F1F767
:1000E00000002B9885EF90E00197F1F700C0000029
:1000F000089584B1886184B98AB18C638AB92FEF7D
:100100008FE791E0215080409040E1F700C000C0AF
:1001100085B1877E85B983E00E94400083E39BE23E
:100120000197F1F783E00E94400083E39BE201978F
:10013000F1F783E00E94400080E791E00197F1F73A
:1001400000C082E00E94400082E00E94400088E0FF
:100150000E94400080E00E9440008CE00E9440002D
:1001600080E00E94400081E00E94400083E393E130
:100170000197F1F780E00E94400086E00C94400077
:10018000CF93C62F2C9895B1811180E1982B95B90A
:100190008C2F82958F700E9440008C2FCF910C94F1
:1001A00040002FEF8FEF92E0215080409040E1F728
:1001B00000C000C00E9479008FEF9FE50197F1F722
:0E01C00000C00000259A2D9AFFCFF894FFCFC3
:00000001FF
