:100000000C9434000C943E000C943E000C943E0082
:100010000C943E000C943E000C943E000C943E0068
:100020000C943E000C943E000C943E000C943E0058
:100030000C943E000C943E000C943E000C943E0048
:100040000C943E000C943E000C943E000C943E0038
:100050000C943E000C943E000C943E000C943E0028
:100060000C943E000C943E0011241FBECFEFD8E04C
:10007000DEBFCDBF0E94CF000C94F0000C940000B6
:10008000239889E999E00197F1F700C0239A89E95B
:1000900099E00197F1F700C023989FEF2FEF82E0DE
:1000A000915020408040E1F700C000C008958130A9
:1000B00009F42C9A8BB194E0699F90011124682F68
:1000C000636C622B6BB90E9440002C982FEF8FEF6E
:1000D00092E0215080409040E1F700C000C00895B8
:1000E00084B1886184B98AB18C638AB92FEF8FEFAC
:1000F0009EE0215080409040E1F700C0000063E0A6
:1001000080E00E9457008FEF9FE20197F1F700C057
:10011000000063E080E00E9457008FEF9FE20197AC
:10012000F1F700C0000063E080E00E94570062E049
:1001300080E00E94570062E080E00E94570068E083
:1001400080E00E94570060E080E00E94570068E075
:1001500080E00E94570060E080E00E94570061E06C
:1001600080E00E94570060E080E00E94570066E057
:1001700080E00C945700CF93DF93D82FC62F629561
:100180006F700E9457006C2F6F708D2F0E94570068
:1001900083E393E10197F1F7DF91CF9108952FEF7A
:1001A0008FEF92E0215080409040E1F700C000C006
:1001B000259A0E9470002D9A2FEF8FEF92E0215028
:1001C00080409040E1F700C000C02D982FEF8FEFE6
:1001D00092E0215080409040E1F700C000C0EBCF9A
:0401E000F894FFCFC1
:00000001FF
