:100000000C9434000C9449000C9449000C94490061
:100010000C9449000C9449000C9449000C9449003C
:100020000C9449000C9449000C9449000C9449002C
:100030000C9449000C9449000C9449000C9449001C
:100040000C9449000C9449000C9449000C9449000C
:100050000C9449000C9449000C9449000C944900FC
:100060000C9449000C94490011241FBECFEFD8E036
:10007000DEBFCDBF11E0A0E0B1E0EAEDF2E002C0EA
:1000800005900D92AE30B107D9F70E944B010C9448
:100090006B010C9400009BB1937C9BB950E040E055
:1000A000682F70E09BB19B01042E02C03595279507
:1000B0000A94E2F721703327042E02C0220F331F67
:1000C0000A94E2F784E0220F331F8A95E1F7292B87
:1000D0002BB94F5F5F4F4430510521F785EF90E01A
:1000E0000197F1F700C000002B9893E09A95F1F783
:1000F00000002B9A83E08A95F1F700002B9885EF9A
:1001000090E00197F1F700C0000008959BB1937C47
:100110009BB950E040E0682F70E0A3E0B0E09BB1F5
:100120009B01042E02C0359527950A94E2F72170B1
:100130003327FD01E41BF50B02C0220F331FEA95A4
:10014000E2F7220F331F220F331F292B2BB94F5FEA
:100150005F4F4430510519F785EF90E00197F1F7B3
:1001600000C000002B9893E09A95F1F700002B9ABD
:1001700083E08A95F1F700002B9885EF90E00197D6
:10018000F1F700C00000089584B1886184B98AB194
:100190008C638AB92FEF8FE791E021508040904027
:1001A000E1F700C000C085B1877E85B983E00E9479
:1001B0004B0083E39BE20197F1F783E00E944B0041
:1001C00083E39BE20197F1F783E00E944B0080E715
:1001D00091E00197F1F700C082E00E944B0082E0BD
:1001E0000E944B0088E00E944B0080E00E944B0080
:1001F0008CE00E944B0080E00E944B0081E00E9456
:100200004B0083E393E10197F1F780E00E944B00FC
:1002100086E00E944B009FEF2FEF82E0915020403C
:100220008040E1F700C000C00895CF93C62F2C98FE
:1002300095B1811180E1982B95B98C2F82958F70A3
:100240000E9486008C2F0E9486008FEF9FE5019709
:10025000F1F700C00000CF910895EF92FF920F9345
:100260001F93CF93DF937C018C01C62FD0E0C80190
:100270008E199F098C179D073CF0DF91CF911F913C
:100280000F91FF90EF900895F80161918F0181E047
:100290000E941501ECCF2FEF8FEF92E021508040AC
:1002A0009040E1F700C000C00E94C4006BE080E015
:1002B00091E00E942D0160EC80E00E94150164E055
:1002C00089E091E00E942D018FEF9FE50197F1F702
:0A02D00000C00000FFCFF894FFCF3C
:0E02DA0048656C6C6F20776F00726C642100B9
:00000001FF
