:100000000C9434000C943E000C943E000C943E0082
:100010000C943E000C943E000C943E000C943E0068
:100020000C943E000C943E000C943E000C943E0058
:100030000C943E000C943E000C943E000C943E0048
:100040000C943E000C943E000C943E000C943E0038
:100050000C943E000C943E000C943E000C943E0028
:100060000C943E000C943E0011241FBECFEFD8E04C
:10007000DEBFCDBF0E9440000C9456000C940000DF
:100080002D9A259A2FEF8FEF92E0215080409040DB
:10009000E1F700C000C025982FEF8FEF92E02150CC
:1000A00080409040E1F700C000C0EBCFF894FFCF54
:00000001FF
